{
  "_format": "hh-sol-artifact-1",
  "contractName": "NFTGame",
  "sourceName": "contracts/NFTGame.sol",
  "abi": [
    {
      "inputs": [
        {
          "internalType": "string[]",
          "name": "characterNames",
          "type": "string[]"
        },
        {
          "internalType": "string[]",
          "name": "characterImageURIs",
          "type": "string[]"
        },
        {
          "internalType": "uint256[]",
          "name": "characterHp",
          "type": "uint256[]"
        },
        {
          "internalType": "uint256[]",
          "name": "characterAttackDmg",
          "type": "uint256[]"
        },
        {
          "internalType": "string",
          "name": "bossName",
          "type": "string"
        },
        {
          "internalType": "string",
          "name": "bossImageURI",
          "type": "string"
        },
        {
          "internalType": "uint256",
          "name": "bossHp",
          "type": "uint256"
        },
        {
          "internalType": "uint256",
          "name": "bossAttackDamage",
          "type": "uint256"
        }
      ],
      "stateMutability": "nonpayable",
      "type": "constructor"
    },
    {
      "anonymous": false,
      "inputs": [
        {
          "indexed": true,
          "internalType": "address",
          "name": "owner",
          "type": "address"
        },
        {
          "indexed": true,
          "internalType": "address",
          "name": "approved",
          "type": "address"
        },
        {
          "indexed": true,
          "internalType": "uint256",
          "name": "tokenId",
          "type": "uint256"
        }
      ],
      "name": "Approval",
      "type": "event"
    },
    {
      "anonymous": false,
      "inputs": [
        {
          "indexed": true,
          "internalType": "address",
          "name": "owner",
          "type": "address"
        },
        {
          "indexed": true,
          "internalType": "address",
          "name": "operator",
          "type": "address"
        },
        {
          "indexed": false,
          "internalType": "bool",
          "name": "approved",
          "type": "bool"
        }
      ],
      "name": "ApprovalForAll",
      "type": "event"
    },
    {
      "anonymous": false,
      "inputs": [
        {
          "indexed": false,
          "internalType": "uint256",
          "name": "newBossHp",
          "type": "uint256"
        },
        {
          "indexed": false,
          "internalType": "uint256",
          "name": "newPlayerHp",
          "type": "uint256"
        }
      ],
      "name": "AttackComplete",
      "type": "event"
    },
    {
      "anonymous": false,
      "inputs": [
        {
          "indexed": false,
          "internalType": "address",
          "name": "sender",
          "type": "address"
        },
        {
          "indexed": false,
          "internalType": "uint256",
          "name": "tokenId",
          "type": "uint256"
        },
        {
          "indexed": false,
          "internalType": "uint256",
          "name": "characterIndex",
          "type": "uint256"
        }
      ],
      "name": "CharacterNFTMinted",
      "type": "event"
    },
    {
      "anonymous": false,
      "inputs": [
        {
          "indexed": false,
          "internalType": "uint256",
          "name": "newPlayerHp",
          "type": "uint256"
        }
      ],
      "name": "HealComplete",
      "type": "event"
    },
    {
      "anonymous": false,
      "inputs": [
        {
          "indexed": true,
          "internalType": "address",
          "name": "from",
          "type": "address"
        },
        {
          "indexed": true,
          "internalType": "address",
          "name": "to",
          "type": "address"
        },
        {
          "indexed": true,
          "internalType": "uint256",
          "name": "tokenId",
          "type": "uint256"
        }
      ],
      "name": "Transfer",
      "type": "event"
    },
    {
      "inputs": [
        {
          "internalType": "address",
          "name": "to",
          "type": "address"
        },
        {
          "internalType": "uint256",
          "name": "tokenId",
          "type": "uint256"
        }
      ],
      "name": "approve",
      "outputs": [],
      "stateMutability": "nonpayable",
      "type": "function"
    },
    {
      "inputs": [],
      "name": "attackBoss",
      "outputs": [],
      "stateMutability": "nonpayable",
      "type": "function"
    },
    {
      "inputs": [
        {
          "internalType": "address",
          "name": "owner",
          "type": "address"
        }
      ],
      "name": "balanceOf",
      "outputs": [
        {
          "internalType": "uint256",
          "name": "",
          "type": "uint256"
        }
      ],
      "stateMutability": "view",
      "type": "function"
    },
    {
      "inputs": [],
      "name": "bigBoss",
      "outputs": [
        {
          "internalType": "string",
          "name": "name",
          "type": "string"
        },
        {
          "internalType": "string",
          "name": "imageURI",
          "type": "string"
        },
        {
          "internalType": "uint256",
          "name": "hp",
          "type": "uint256"
        },
        {
          "internalType": "uint256",
          "name": "maxHp",
          "type": "uint256"
        },
        {
          "internalType": "uint256",
          "name": "attackDamage",
          "type": "uint256"
        }
      ],
      "stateMutability": "view",
      "type": "function"
    },
    {
      "inputs": [],
      "name": "checkIfUserHasNFT",
      "outputs": [
        {
          "components": [
            {
              "internalType": "uint256",
              "name": "characterIndex",
              "type": "uint256"
            },
            {
              "internalType": "string",
              "name": "name",
              "type": "string"
            },
            {
              "internalType": "string",
              "name": "imageURI",
              "type": "string"
            },
            {
              "internalType": "uint256",
              "name": "hp",
              "type": "uint256"
            },
            {
              "internalType": "uint256",
              "name": "maxHp",
              "type": "uint256"
            },
            {
              "internalType": "uint256",
              "name": "attackDamage",
              "type": "uint256"
            }
          ],
          "internalType": "struct NFTGame.CharacterAttributes",
          "name": "",
          "type": "tuple"
        }
      ],
      "stateMutability": "view",
      "type": "function"
    },
    {
      "inputs": [],
      "name": "getAllDefaultCharacters",
      "outputs": [
        {
          "components": [
            {
              "internalType": "uint256",
              "name": "characterIndex",
              "type": "uint256"
            },
            {
              "internalType": "string",
              "name": "name",
              "type": "string"
            },
            {
              "internalType": "string",
              "name": "imageURI",
              "type": "string"
            },
            {
              "internalType": "uint256",
              "name": "hp",
              "type": "uint256"
            },
            {
              "internalType": "uint256",
              "name": "maxHp",
              "type": "uint256"
            },
            {
              "internalType": "uint256",
              "name": "attackDamage",
              "type": "uint256"
            }
          ],
          "internalType": "struct NFTGame.CharacterAttributes[]",
          "name": "",
          "type": "tuple[]"
        }
      ],
      "stateMutability": "view",
      "type": "function"
    },
    {
      "inputs": [
        {
          "internalType": "uint256",
          "name": "tokenId",
          "type": "uint256"
        }
      ],
      "name": "getApproved",
      "outputs": [
        {
          "internalType": "address",
          "name": "",
          "type": "address"
        }
      ],
      "stateMutability": "view",
      "type": "function"
    },
    {
      "inputs": [],
      "name": "getBigBoss",
      "outputs": [
        {
          "components": [
            {
              "internalType": "string",
              "name": "name",
              "type": "string"
            },
            {
              "internalType": "string",
              "name": "imageURI",
              "type": "string"
            },
            {
              "internalType": "uint256",
              "name": "hp",
              "type": "uint256"
            },
            {
              "internalType": "uint256",
              "name": "maxHp",
              "type": "uint256"
            },
            {
              "internalType": "uint256",
              "name": "attackDamage",
              "type": "uint256"
            }
          ],
          "internalType": "struct NFTGame.BigBoss",
          "name": "",
          "type": "tuple"
        }
      ],
      "stateMutability": "view",
      "type": "function"
    },
    {
      "inputs": [],
      "name": "healCharacter",
      "outputs": [],
      "stateMutability": "nonpayable",
      "type": "function"
    },
    {
      "inputs": [
        {
          "internalType": "address",
          "name": "owner",
          "type": "address"
        },
        {
          "internalType": "address",
          "name": "operator",
          "type": "address"
        }
      ],
      "name": "isApprovedForAll",
      "outputs": [
        {
          "internalType": "bool",
          "name": "",
          "type": "bool"
        }
      ],
      "stateMutability": "view",
      "type": "function"
    },
    {
      "inputs": [
        {
          "internalType": "uint256",
          "name": "_characterIndex",
          "type": "uint256"
        }
      ],
      "name": "mintCharacterNFT",
      "outputs": [],
      "stateMutability": "nonpayable",
      "type": "function"
    },
    {
      "inputs": [],
      "name": "name",
      "outputs": [
        {
          "internalType": "string",
          "name": "",
          "type": "string"
        }
      ],
      "stateMutability": "view",
      "type": "function"
    },
    {
      "inputs": [
        {
          "internalType": "uint256",
          "name": "",
          "type": "uint256"
        }
      ],
      "name": "nftHolderAttributes",
      "outputs": [
        {
          "internalType": "uint256",
          "name": "characterIndex",
          "type": "uint256"
        },
        {
          "internalType": "string",
          "name": "name",
          "type": "string"
        },
        {
          "internalType": "string",
          "name": "imageURI",
          "type": "string"
        },
        {
          "internalType": "uint256",
          "name": "hp",
          "type": "uint256"
        },
        {
          "internalType": "uint256",
          "name": "maxHp",
          "type": "uint256"
        },
        {
          "internalType": "uint256",
          "name": "attackDamage",
          "type": "uint256"
        }
      ],
      "stateMutability": "view",
      "type": "function"
    },
    {
      "inputs": [
        {
          "internalType": "address",
          "name": "",
          "type": "address"
        }
      ],
      "name": "nftHolders",
      "outputs": [
        {
          "internalType": "uint256",
          "name": "",
          "type": "uint256"
        }
      ],
      "stateMutability": "view",
      "type": "function"
    },
    {
      "inputs": [
        {
          "internalType": "uint256",
          "name": "tokenId",
          "type": "uint256"
        }
      ],
      "name": "ownerOf",
      "outputs": [
        {
          "internalType": "address",
          "name": "",
          "type": "address"
        }
      ],
      "stateMutability": "view",
      "type": "function"
    },
    {
      "inputs": [
        {
          "internalType": "address",
          "name": "from",
          "type": "address"
        },
        {
          "internalType": "address",
          "name": "to",
          "type": "address"
        },
        {
          "internalType": "uint256",
          "name": "tokenId",
          "type": "uint256"
        }
      ],
      "name": "safeTransferFrom",
      "outputs": [],
      "stateMutability": "nonpayable",
      "type": "function"
    },
    {
      "inputs": [
        {
          "internalType": "address",
          "name": "from",
          "type": "address"
        },
        {
          "internalType": "address",
          "name": "to",
          "type": "address"
        },
        {
          "internalType": "uint256",
          "name": "tokenId",
          "type": "uint256"
        },
        {
          "internalType": "bytes",
          "name": "_data",
          "type": "bytes"
        }
      ],
      "name": "safeTransferFrom",
      "outputs": [],
      "stateMutability": "nonpayable",
      "type": "function"
    },
    {
      "inputs": [
        {
          "internalType": "address",
          "name": "operator",
          "type": "address"
        },
        {
          "internalType": "bool",
          "name": "approved",
          "type": "bool"
        }
      ],
      "name": "setApprovalForAll",
      "outputs": [],
      "stateMutability": "nonpayable",
      "type": "function"
    },
    {
      "inputs": [
        {
          "internalType": "bytes4",
          "name": "interfaceId",
          "type": "bytes4"
        }
      ],
      "name": "supportsInterface",
      "outputs": [
        {
          "internalType": "bool",
          "name": "",
          "type": "bool"
        }
      ],
      "stateMutability": "view",
      "type": "function"
    },
    {
      "inputs": [],
      "name": "symbol",
      "outputs": [
        {
          "internalType": "string",
          "name": "",
          "type": "string"
        }
      ],
      "stateMutability": "view",
      "type": "function"
    },
    {
      "inputs": [
        {
          "internalType": "uint256",
          "name": "_tokenId",
          "type": "uint256"
        }
      ],
      "name": "tokenURI",
      "outputs": [
        {
          "internalType": "string",
          "name": "",
          "type": "string"
        }
      ],
      "stateMutability": "view",
      "type": "function"
    },
    {
      "inputs": [
        {
          "internalType": "address",
          "name": "from",
          "type": "address"
        },
        {
          "internalType": "address",
          "name": "to",
          "type": "address"
        },
        {
          "internalType": "uint256",
          "name": "tokenId",
          "type": "uint256"
        }
      ],
      "name": "transferFrom",
      "outputs": [],
      "stateMutability": "nonpayable",
      "type": "function"
    }
  ],
  "bytecode": "0x60806040523480156200001157600080fd5b5060405162005e4e38038062005e4e833981810160405281019062000037919062000a85565b6040518060400160405280600881526020017f43617476657273650000000000000000000000000000000000000000000000008152506040518060400160405280600381526020017f43415400000000000000000000000000000000000000000000000000000000008152508160009080519060200190620000bb929190620007ed565b508060019080519060200190620000d4929190620007ed565b5050506040518060a0016040528085815260200184815260200183815260200183815260200182815250600a60008201518160000190805190602001906200011e929190620007ed565b5060208201518160010190805190602001906200013d929190620007ed565b50604082015181600201556060820151816003015560808201518160040155905050620002c06040518060600160405280602a815260200162005e24602a9139600a60000180546200018f9062000e08565b80601f0160208091040260200160405190810160405280929190818152602001828054620001bd9062000e08565b80156200020e5780601f10620001e2576101008083540402835291602001916200020e565b820191906000526020600020905b815481529060010190602001808311620001f057829003601f168201915b5050505050600a60020154600a60010180546200022b9062000e08565b80601f0160208091040260200160405190810160405280929190818152602001828054620002599062000e08565b8015620002aa5780601f106200027e57610100808354040283529160200191620002aa565b820191906000526020600020905b8154815290600101906020018083116200028c57829003601f168201915b50505050506200070260201b620021b01760201c565b60005b8851811015620006dc5760076040518060c001604052808381526020018b84815181106200031a577f4e487b7100000000000000000000000000000000000000000000000000000000600052603260045260246000fd5b602002602001015181526020018a848151811062000361577f4e487b7100000000000000000000000000000000000000000000000000000000600052603260045260246000fd5b60200260200101518152602001898481518110620003a8577f4e487b7100000000000000000000000000000000000000000000000000000000600052603260045260246000fd5b60200260200101518152602001898481518110620003ef577f4e487b7100000000000000000000000000000000000000000000000000000000600052603260045260246000fd5b6020026020010151815260200188848151811062000436577f4e487b7100000000000000000000000000000000000000000000000000000000600052603260045260246000fd5b6020026020010151815250908060018154018082558091505060019003906000526020600020906006020160009091909190915060008201518160000155602082015181600101908051906020019062000492929190620007ed565b506040820151816002019080519060200190620004b1929190620007ed565b50606082015181600301556080820151816004015560a0820151816005015550506000600782815481106200050f577f4e487b7100000000000000000000000000000000000000000000000000000000600052603260045260246000fd5b90600052602060002090600602016040518060c001604052908160008201548152602001600182018054620005449062000e08565b80601f0160208091040260200160405190810160405280929190818152602001828054620005729062000e08565b8015620005c35780601f106200059757610100808354040283529160200191620005c3565b820191906000526020600020905b815481529060010190602001808311620005a557829003601f168201915b50505050508152602001600282018054620005de9062000e08565b80601f01602080910402602001604051908101604052809291908181526020018280546200060c9062000e08565b80156200065d5780601f1062000631576101008083540402835291602001916200065d565b820191906000526020600020905b8154815290600101906020018083116200063f57829003601f168201915b5050505050815260200160038201548152602001600482015481526020016005820154815250509050620006c460405180606001604052806025815260200162005dff602591398260200151836060015184604001516200070260201b620021b01760201c565b50600181620006d4919062000d6b565b9050620002c3565b50620006f46006620007ae60201b620022521760201c565b505050505050505062000f2c565b620007a8848484846040516024016200071f949392919062000c30565b6040516020818303038152906040527f8d142cdd000000000000000000000000000000000000000000000000000000007bffffffffffffffffffffffffffffffffffffffffffffffffffffffff19166020820180517bffffffffffffffffffffffffffffffffffffffffffffffffffffffff8381831617835250505050620007c460201b60201c565b50505050565b6001816000016000828254019250508190555050565b60008151905060006a636f6e736f6c652e6c6f679050602083016000808483855afa5050505050565b828054620007fb9062000e08565b90600052602060002090601f0160209004810192826200081f57600085556200086b565b82601f106200083a57805160ff19168380011785556200086b565b828001600101855582156200086b579182015b828111156200086a5782518255916020019190600101906200084d565b5b5090506200087a91906200087e565b5090565b5b80821115620008995760008160009055506001016200087f565b5090565b6000620008b4620008ae8462000cbb565b62000c92565b90508083825260208201905082856020860282011115620008d457600080fd5b60005b858110156200092357815167ffffffffffffffff811115620008f857600080fd5b80860162000907898262000a41565b85526020850194506020840193505050600181019050620008d7565b5050509392505050565b6000620009446200093e8462000cea565b62000c92565b905080838252602082019050828560208602820111156200096457600080fd5b60005b858110156200099857816200097d888262000a6e565b84526020840193506020830192505060018101905062000967565b5050509392505050565b6000620009b9620009b38462000d19565b62000c92565b905082815260208101848484011115620009d257600080fd5b620009df84828562000dd2565b509392505050565b600082601f830112620009f957600080fd5b815162000a0b8482602086016200089d565b91505092915050565b600082601f83011262000a2657600080fd5b815162000a388482602086016200092d565b91505092915050565b600082601f83011262000a5357600080fd5b815162000a65848260208601620009a2565b91505092915050565b60008151905062000a7f8162000f12565b92915050565b600080600080600080600080610100898b03121562000aa357600080fd5b600089015167ffffffffffffffff81111562000abe57600080fd5b62000acc8b828c01620009e7565b985050602089015167ffffffffffffffff81111562000aea57600080fd5b62000af88b828c01620009e7565b975050604089015167ffffffffffffffff81111562000b1657600080fd5b62000b248b828c0162000a14565b965050606089015167ffffffffffffffff81111562000b4257600080fd5b62000b508b828c0162000a14565b955050608089015167ffffffffffffffff81111562000b6e57600080fd5b62000b7c8b828c0162000a41565b94505060a089015167ffffffffffffffff81111562000b9a57600080fd5b62000ba88b828c0162000a41565b93505060c062000bbb8b828c0162000a6e565b92505060e062000bce8b828c0162000a6e565b9150509295985092959890939650565b600062000beb8262000d4f565b62000bf7818562000d5a565b935062000c0981856020860162000dd2565b62000c148162000f01565b840191505092915050565b62000c2a8162000dc8565b82525050565b6000608082019050818103600083015262000c4c818762000bde565b9050818103602083015262000c62818662000bde565b905062000c73604083018562000c1f565b818103606083015262000c87818462000bde565b905095945050505050565b600062000c9e62000cb1565b905062000cac828262000e3e565b919050565b6000604051905090565b600067ffffffffffffffff82111562000cd95762000cd862000ed2565b5b602082029050602081019050919050565b600067ffffffffffffffff82111562000d085762000d0762000ed2565b5b602082029050602081019050919050565b600067ffffffffffffffff82111562000d375762000d3662000ed2565b5b62000d428262000f01565b9050602081019050919050565b600081519050919050565b600082825260208201905092915050565b600062000d788262000dc8565b915062000d858362000dc8565b9250827fffffffffffffffffffffffffffffffffffffffffffffffffffffffffffffffff0382111562000dbd5762000dbc62000e74565b5b828201905092915050565b6000819050919050565b60005b8381101562000df257808201518184015260208101905062000dd5565b8381111562000e02576000848401525b50505050565b6000600282049050600182168062000e2157607f821691505b6020821081141562000e385762000e3762000ea3565b5b50919050565b62000e498262000f01565b810181811067ffffffffffffffff8211171562000e6b5762000e6a62000ed2565b5b80604052505050565b7f4e487b7100000000000000000000000000000000000000000000000000000000600052601160045260246000fd5b7f4e487b7100000000000000000000000000000000000000000000000000000000600052602260045260246000fd5b7f4e487b7100000000000000000000000000000000000000000000000000000000600052604160045260246000fd5b6000601f19601f8301169050919050565b62000f1d8162000dc8565b811462000f2957600080fd5b50565b614ec38062000f3c6000396000f3fe608060405234801561001057600080fd5b50600436106101425760003560e01c806398da4c95116100b8578063c87b56dd1161007c578063c87b56dd14610392578063c8cf27f4146103c2578063d355ae99146103e0578063d4f24c5b146103ea578063e985e9c5146103f4578063f8b81ef71461042457610142565b806398da4c95146102e5578063a22cb4651461031a578063a9c3267914610336578063b88d4fde14610358578063b953084e1461037457610142565b806323b872dd1161010a57806323b872dd146101ff57806342842e0e1461021b5780636352211e1461023757806370a08231146102675780637df124a11461029757806395d89b41146102c757610142565b806301ffc9a7146101475780630665f9611461017757806306fdde0314610195578063081812fc146101b3578063095ea7b3146101e3575b600080fd5b610161600480360381019061015c919061352f565b610440565b60405161016e9190613db7565b60405180910390f35b61017f610522565b60405161018c91906141df565b60405180910390f35b61019d61067e565b6040516101aa9190613dd2565b60405180910390f35b6101cd60048036038101906101c89190613581565b610710565b6040516101da9190613cf7565b60405180910390f35b6101fd60048036038101906101f891906134f3565b610795565b005b610219600480360381019061021491906133ed565b6108ad565b005b610235600480360381019061023091906133ed565b61090d565b005b610251600480360381019061024c9190613581565b61092d565b60405161025e9190613cf7565b60405180910390f35b610281600480360381019061027c9190613388565b6109df565b60405161028e9190614223565b60405180910390f35b6102b160048036038101906102ac9190613388565b610a97565b6040516102be9190614223565b60405180910390f35b6102cf610aaf565b6040516102dc9190613dd2565b60405180910390f35b6102ff60048036038101906102fa9190613581565b610b41565b6040516103119695949392919061423e565b60405180910390f35b610334600480360381019061032f91906134b7565b610c8d565b005b61033e610e0e565b60405161034f959493929190613f40565b60405180910390f35b610372600480360381019061036d919061343c565b610f42565b005b61037c610fa4565b6040516103899190613d95565b60405180910390f35b6103ac60048036038101906103a79190613581565b61114f565b6040516103b99190613dd2565b60405180910390f35b6103ca61136a565b6040516103d79190614201565b60405180910390f35b6103e8611542565b005b6103f261174a565b005b61040e600480360381019061040991906133b1565b611d28565b60405161041b9190613db7565b60405180910390f35b61043e60048036038101906104399190613581565b611dbc565b005b60007f80ac58cd000000000000000000000000000000000000000000000000000000007bffffffffffffffffffffffffffffffffffffffffffffffffffffffff1916827bffffffffffffffffffffffffffffffffffffffffffffffffffffffff1916148061050b57507f5b5e139f000000000000000000000000000000000000000000000000000000007bffffffffffffffffffffffffffffffffffffffffffffffffffffffff1916827bffffffffffffffffffffffffffffffffffffffffffffffffffffffff1916145b8061051b575061051a82612268565b5b9050919050565b61052a6131af565b600a6040518060a001604052908160008201805461054790614584565b80601f016020809104026020016040519081016040528092919081815260200182805461057390614584565b80156105c05780601f10610595576101008083540402835291602001916105c0565b820191906000526020600020905b8154815290600101906020018083116105a357829003601f168201915b505050505081526020016001820180546105d990614584565b80601f016020809104026020016040519081016040528092919081815260200182805461060590614584565b80156106525780601f1061062757610100808354040283529160200191610652565b820191906000526020600020905b81548152906001019060200180831161063557829003601f168201915b505050505081526020016002820154815260200160038201548152602001600482015481525050905090565b60606000805461068d90614584565b80601f01602080910402602001604051908101604052809291908181526020018280546106b990614584565b80156107065780601f106106db57610100808354040283529160200191610706565b820191906000526020600020905b8154815290600101906020018083116106e957829003601f168201915b5050505050905090565b600061071b826122d2565b61075a576040517f08c379a00000000000000000000000000000000000000000000000000000000081526004016107519061413f565b60405180910390fd5b6004600083815260200190815260200160002060009054906101000a900473ffffffffffffffffffffffffffffffffffffffff169050919050565b60006107a08261092d565b90508073ffffffffffffffffffffffffffffffffffffffff168373ffffffffffffffffffffffffffffffffffffffff161415610811576040517f08c379a00000000000000000000000000000000000000000000000000000000081526004016108089061417f565b60405180910390fd5b8073ffffffffffffffffffffffffffffffffffffffff1661083061233e565b73ffffffffffffffffffffffffffffffffffffffff16148061085f575061085e8161085961233e565b611d28565b5b61089e576040517f08c379a00000000000000000000000000000000000000000000000000000000081526004016108959061409f565b60405180910390fd5b6108a88383612346565b505050565b6108be6108b861233e565b826123ff565b6108fd576040517f08c379a00000000000000000000000000000000000000000000000000000000081526004016108f49061419f565b60405180910390fd5b6109088383836124dd565b505050565b61092883838360405180602001604052806000815250610f42565b505050565b6000806002600084815260200190815260200160002060009054906101000a900473ffffffffffffffffffffffffffffffffffffffff169050600073ffffffffffffffffffffffffffffffffffffffff168173ffffffffffffffffffffffffffffffffffffffff1614156109d6576040517f08c379a00000000000000000000000000000000000000000000000000000000081526004016109cd906140df565b60405180910390fd5b80915050919050565b60008073ffffffffffffffffffffffffffffffffffffffff168273ffffffffffffffffffffffffffffffffffffffff161415610a50576040517f08c379a0000000000000000000000000000000000000000000000000000000008152600401610a47906140bf565b60405180910390fd5b600360008373ffffffffffffffffffffffffffffffffffffffff1673ffffffffffffffffffffffffffffffffffffffff168152602001908152602001600020549050919050565b60096020528060005260406000206000915090505481565b606060018054610abe90614584565b80601f0160208091040260200160405190810160405280929190818152602001828054610aea90614584565b8015610b375780601f10610b0c57610100808354040283529160200191610b37565b820191906000526020600020905b815481529060010190602001808311610b1a57829003601f168201915b5050505050905090565b6008602052806000526040600020600091509050806000015490806001018054610b6a90614584565b80601f0160208091040260200160405190810160405280929190818152602001828054610b9690614584565b8015610be35780601f10610bb857610100808354040283529160200191610be3565b820191906000526020600020905b815481529060010190602001808311610bc657829003601f168201915b505050505090806002018054610bf890614584565b80601f0160208091040260200160405190810160405280929190818152602001828054610c2490614584565b8015610c715780601f10610c4657610100808354040283529160200191610c71565b820191906000526020600020905b815481529060010190602001808311610c5457829003601f168201915b5050505050908060030154908060040154908060050154905086565b610c9561233e565b73ffffffffffffffffffffffffffffffffffffffff168273ffffffffffffffffffffffffffffffffffffffff161415610d03576040517f08c379a0000000000000000000000000000000000000000000000000000000008152600401610cfa9061405f565b60405180910390fd5b8060056000610d1061233e565b73ffffffffffffffffffffffffffffffffffffffff1673ffffffffffffffffffffffffffffffffffffffff16815260200190815260200160002060008473ffffffffffffffffffffffffffffffffffffffff1673ffffffffffffffffffffffffffffffffffffffff16815260200190815260200160002060006101000a81548160ff0219169083151502179055508173ffffffffffffffffffffffffffffffffffffffff16610dbd61233e565b73ffffffffffffffffffffffffffffffffffffffff167f17307eab39ab6107e8899845ad3d59bd9653f200f220920489ca2b5937696c3183604051610e029190613db7565b60405180910390a35050565b600a806000018054610e1f90614584565b80601f0160208091040260200160405190810160405280929190818152602001828054610e4b90614584565b8015610e985780601f10610e6d57610100808354040283529160200191610e98565b820191906000526020600020905b815481529060010190602001808311610e7b57829003601f168201915b505050505090806001018054610ead90614584565b80601f0160208091040260200160405190810160405280929190818152602001828054610ed990614584565b8015610f265780601f10610efb57610100808354040283529160200191610f26565b820191906000526020600020905b815481529060010190602001808311610f0957829003601f168201915b5050505050908060020154908060030154908060040154905085565b610f53610f4d61233e565b836123ff565b610f92576040517f08c379a0000000000000000000000000000000000000000000000000000000008152600401610f899061419f565b60405180910390fd5b610f9e84848484612739565b50505050565b60606007805480602002602001604051908101604052809291908181526020016000905b8282101561114657838290600052602060002090600602016040518060c00160405290816000820154815260200160018201805461100590614584565b80601f016020809104026020016040519081016040528092919081815260200182805461103190614584565b801561107e5780601f106110535761010080835404028352916020019161107e565b820191906000526020600020905b81548152906001019060200180831161106157829003601f168201915b5050505050815260200160028201805461109790614584565b80601f01602080910402602001604051908101604052809291908181526020018280546110c390614584565b80156111105780601f106110e557610100808354040283529160200191611110565b820191906000526020600020905b8154815290600101906020018083116110f357829003601f168201915b50505050508152602001600382015481526020016004820154815260200160058201548152505081526020019060010190610fc8565b50505050905090565b60606000600860008481526020019081526020016000206040518060c00160405290816000820154815260200160018201805461118b90614584565b80601f01602080910402602001604051908101604052809291908181526020018280546111b790614584565b80156112045780601f106111d957610100808354040283529160200191611204565b820191906000526020600020905b8154815290600101906020018083116111e757829003601f168201915b5050505050815260200160028201805461121d90614584565b80601f016020809104026020016040519081016040528092919081815260200182805461124990614584565b80156112965780601f1061126b57610100808354040283529160200191611296565b820191906000526020600020905b81548152906001019060200180831161127957829003601f168201915b505050505081526020016003820154815260200160048201548152602001600582015481525050905060006112ce8260600151612795565b905060006112df8360800151612795565b905060006112f08460a00151612795565b90506000611336856020015161130589612795565b876040015187878760405160200161132296959493929190613c30565b604051602081830303815290604052612942565b905060008160405160200161134b9190613cd5565b6040516020818303038152906040529050809650505050505050919050565b6113726131de565b6000600960003373ffffffffffffffffffffffffffffffffffffffff1673ffffffffffffffffffffffffffffffffffffffff168152602001908152602001600020549050600081111561153157600860008281526020019081526020016000206040518060c0016040529081600082015481526020016001820180546113f790614584565b80601f016020809104026020016040519081016040528092919081815260200182805461142390614584565b80156114705780601f1061144557610100808354040283529160200191611470565b820191906000526020600020905b81548152906001019060200180831161145357829003601f168201915b5050505050815260200160028201805461148990614584565b80601f01602080910402602001604051908101604052809291908181526020018280546114b590614584565b80156115025780601f106114d757610100808354040283529160200191611502565b820191906000526020600020905b8154815290600101906020018083116114e557829003601f168201915b50505050508152602001600382015481526020016004820154815260200160058201548152505091505061153f565b6115396131de565b80925050505b90565b6000600960003373ffffffffffffffffffffffffffffffffffffffff1673ffffffffffffffffffffffffffffffffffffffff1681526020019081526020016000205490506000600860008381526020019081526020016000209050600181600401546115ae919061449a565b8160030154106115f3576040517f08c379a00000000000000000000000000000000000000000000000000000000081526004016115ea906141bf565b60405180910390fd5b80600401546064826003015461160991906143b9565b101561162d576064816003015461162091906143b9565b816003018190555061163b565b806004015481600301819055505b61170b6040518060400160405280601c81526020017f2573206865616c65642e204e657720706c617965722068703a2025730000000081525082600101805461168390614584565b80601f01602080910402602001604051908101604052809291908181526020018280546116af90614584565b80156116fc5780601f106116d1576101008083540402835291602001916116fc565b820191906000526020600020905b8154815290600101906020018083116116df57829003601f168201915b50505050508360030154612b00565b7f2be60dd22e04e67ada7a097b4345d62e9ba630d7a7a9b3c3341da2650204d256816003015460405161173e9190614223565b60405180910390a15050565b6000600960003373ffffffffffffffffffffffffffffffffffffffff1673ffffffffffffffffffffffffffffffffffffffff168152602001908152602001600020549050600060086000838152602001908152602001600020905061185d6040518060600160405280603c8152602001614e31603c91398260010180546117d090614584565b80601f01602080910402602001604051908101604052809291908181526020018280546117fc90614584565b80156118495780601f1061181e57610100808354040283529160200191611849565b820191906000526020600020905b81548152906001019060200180831161182c57829003601f168201915b505050505083600301548460050154612b9f565b6119356040518060400160405280601b81526020017f426f73732025732068617320257320485020616e642025732041440000000000815250600a60000180546118a690614584565b80601f01602080910402602001604051908101604052809291908181526020018280546118d290614584565b801561191f5780601f106118f45761010080835404028352916020019161191f565b820191906000526020600020905b81548152906001019060200180831161190257829003601f168201915b5050505050600a60020154600a60040154612b9f565b600081600301541161197c576040517f08c379a0000000000000000000000000000000000000000000000000000000008152600401611973906140ff565b60405180910390fd5b6000600a60020154116119c4576040517f08c379a00000000000000000000000000000000000000000000000000000000081526004016119bb90613fff565b60405180910390fd5b8060050154600a6002015410156119e5576000600a60020181905550611a04565b8060050154600a600201546119fa919061449a565b600a600201819055505b600a6004015481600301541015611a245760008160030181905550611a42565b600a600401548160030154611a39919061449a565b81600301819055505b611ba16040518060400160405280601f81526020017f25732061747461636b65642025732e204e657720626f73732068703a20257300815250826001018054611a8a90614584565b80601f0160208091040260200160405190810160405280929190818152602001828054611ab690614584565b8015611b035780601f10611ad857610100808354040283529160200191611b03565b820191906000526020600020905b815481529060010190602001808311611ae657829003601f168201915b5050505050600a6000018054611b1890614584565b80601f0160208091040260200160405190810160405280929190818152602001828054611b4490614584565b8015611b915780601f10611b6657610100808354040283529160200191611b91565b820191906000526020600020905b815481529060010190602001808311611b7457829003601f168201915b5050505050600a60020154612c41565b611ce2604051806060016040528060218152602001614e6d60219139600a6000018054611bcd90614584565b80601f0160208091040260200160405190810160405280929190818152602001828054611bf990614584565b8015611c465780601f10611c1b57610100808354040283529160200191611c46565b820191906000526020600020905b815481529060010190602001808311611c2957829003601f168201915b5050505050836001018054611c5a90614584565b80601f0160208091040260200160405190810160405280929190818152602001828054611c8690614584565b8015611cd35780601f10611ca857610100808354040283529160200191611cd3565b820191906000526020600020905b815481529060010190602001808311611cb657829003601f168201915b50505050508460030154612c41565b7f838ab28464562786a6c4ab2311964b82fa60bd9b14aa7e856af1f3f18d41a414600a600201548260030154604051611d1c9291906142ad565b60405180910390a15050565b6000600560008473ffffffffffffffffffffffffffffffffffffffff1673ffffffffffffffffffffffffffffffffffffffff16815260200190815260200160002060008373ffffffffffffffffffffffffffffffffffffffff1673ffffffffffffffffffffffffffffffffffffffff16815260200190815260200160002060009054906101000a900460ff16905092915050565b6000611dc86006612ce3565b9050611dd43382612cf1565b6040518060c0016040528083815260200160078481548110611e1f577f4e487b7100000000000000000000000000000000000000000000000000000000600052603260045260246000fd5b90600052602060002090600602016001018054611e3b90614584565b80601f0160208091040260200160405190810160405280929190818152602001828054611e6790614584565b8015611eb45780601f10611e8957610100808354040283529160200191611eb4565b820191906000526020600020905b815481529060010190602001808311611e9757829003601f168201915b5050505050815260200160078481548110611ef8577f4e487b7100000000000000000000000000000000000000000000000000000000600052603260045260246000fd5b90600052602060002090600602016002018054611f1490614584565b80601f0160208091040260200160405190810160405280929190818152602001828054611f4090614584565b8015611f8d5780601f10611f6257610100808354040283529160200191611f8d565b820191906000526020600020905b815481529060010190602001808311611f7057829003601f168201915b5050505050815260200160078481548110611fd1577f4e487b7100000000000000000000000000000000000000000000000000000000600052603260045260246000fd5b906000526020600020906006020160030154815260200160078481548110612022577f4e487b7100000000000000000000000000000000000000000000000000000000600052603260045260246000fd5b906000526020600020906006020160030154815260200160078481548110612073577f4e487b7100000000000000000000000000000000000000000000000000000000600052603260045260246000fd5b906000526020600020906006020160050154815250600860008381526020019081526020016000206000820151816000015560208201518160010190805190602001906120c1929190613214565b5060408201518160020190805190602001906120de929190613214565b50606082015181600301556080820151816004015560a082015181600501559050506121236040518060600160405280602e8152602001614e03602e91398284612d0f565b80600960003373ffffffffffffffffffffffffffffffffffffffff1673ffffffffffffffffffffffffffffffffffffffff168152602001908152602001600020819055506121716006612252565b7f4bc303fd457a97b4691b9af582ce71868a3d258638c8d4f8c60988a0f0bfb8cd3382846040516121a493929190613d5e565b60405180910390a15050565b61224c848484846040516024016121ca9493929190613e93565b6040516020818303038152906040527f8d142cdd000000000000000000000000000000000000000000000000000000007bffffffffffffffffffffffffffffffffffffffffffffffffffffffff19166020820180517bffffffffffffffffffffffffffffffffffffffffffffffffffffffff8381831617835250505050612dae565b50505050565b6001816000016000828254019250508190555050565b60007f01ffc9a7000000000000000000000000000000000000000000000000000000007bffffffffffffffffffffffffffffffffffffffffffffffffffffffff1916827bffffffffffffffffffffffffffffffffffffffffffffffffffffffff1916149050919050565b60008073ffffffffffffffffffffffffffffffffffffffff166002600084815260200190815260200160002060009054906101000a900473ffffffffffffffffffffffffffffffffffffffff1673ffffffffffffffffffffffffffffffffffffffff1614159050919050565b600033905090565b816004600083815260200190815260200160002060006101000a81548173ffffffffffffffffffffffffffffffffffffffff021916908373ffffffffffffffffffffffffffffffffffffffff160217905550808273ffffffffffffffffffffffffffffffffffffffff166123b98361092d565b73ffffffffffffffffffffffffffffffffffffffff167f8c5be1e5ebec7d5bd14f71427d1e84f3dd0314c0f7b2291e5b200ac8c7c3b92560405160405180910390a45050565b600061240a826122d2565b612449576040517f08c379a00000000000000000000000000000000000000000000000000000000081526004016124409061407f565b60405180910390fd5b60006124548361092d565b90508073ffffffffffffffffffffffffffffffffffffffff168473ffffffffffffffffffffffffffffffffffffffff1614806124c357508373ffffffffffffffffffffffffffffffffffffffff166124ab84610710565b73ffffffffffffffffffffffffffffffffffffffff16145b806124d457506124d38185611d28565b5b91505092915050565b8273ffffffffffffffffffffffffffffffffffffffff166124fd8261092d565b73ffffffffffffffffffffffffffffffffffffffff1614612553576040517f08c379a000000000000000000000000000000000000000000000000000000000815260040161254a9061415f565b60405180910390fd5b600073ffffffffffffffffffffffffffffffffffffffff168273ffffffffffffffffffffffffffffffffffffffff1614156125c3576040517f08c379a00000000000000000000000000000000000000000000000000000000081526004016125ba9061403f565b60405180910390fd5b6125ce838383612dd7565b6125d9600082612346565b6001600360008573ffffffffffffffffffffffffffffffffffffffff1673ffffffffffffffffffffffffffffffffffffffff1681526020019081526020016000206000828254612629919061449a565b925050819055506001600360008473ffffffffffffffffffffffffffffffffffffffff1673ffffffffffffffffffffffffffffffffffffffff168152602001908152602001600020600082825461268091906143b9565b92505081905550816002600083815260200190815260200160002060006101000a81548173ffffffffffffffffffffffffffffffffffffffff021916908373ffffffffffffffffffffffffffffffffffffffff160217905550808273ffffffffffffffffffffffffffffffffffffffff168473ffffffffffffffffffffffffffffffffffffffff167fddf252ad1be2c89b69c2b068fc378daa952ba7f163c4a11628f55a4df523b3ef60405160405180910390a4505050565b6127448484846124dd565b61275084848484612ddc565b61278f576040517f08c379a000000000000000000000000000000000000000000000000000000000815260040161278690613fdf565b60405180910390fd5b50505050565b606060008214156127dd576040518060400160405280600181526020017f3000000000000000000000000000000000000000000000000000000000000000815250905061293d565b600082905060005b6000821461280f5780806127f8906145e7565b915050600a82612808919061440f565b91506127e5565b60008167ffffffffffffffff811115612851577f4e487b7100000000000000000000000000000000000000000000000000000000600052604160045260246000fd5b6040519080825280601f01601f1916602001820160405280156128835781602001600182028036833780820191505090505b5090505b600085146129365760018261289c919061449a565b9150600a856128ab9190614630565b60306128b791906143b9565b60f81b8183815181106128f3577f4e487b7100000000000000000000000000000000000000000000000000000000600052603260045260246000fd5b60200101907effffffffffffffffffffffffffffffffffffffffffffffffffffffffffffff1916908160001a905350600a8561292f919061440f565b9450612887565b8093505050505b919050565b6060600082519050600081141561296b5760405180602001604052806000815250915050612afb565b6000600360028361297c91906143b9565b612986919061440f565b60046129929190614440565b905060006020826129a391906143b9565b67ffffffffffffffff8111156129e2577f4e487b7100000000000000000000000000000000000000000000000000000000600052604160045260246000fd5b6040519080825280601f01601f191660200182016040528015612a145781602001600182028036833780820191505090505b5090506000604051806060016040528060408152602001614dc3604091399050600181016020830160005b86811015612ab85760038101905062ffffff818a015116603f8160121c168401518060081b905060ff603f83600c1c1686015116810190508060081b905060ff603f8360061c1686015116810190508060081b905060ff603f831686015116810190508060e01b90508084526004840193505050612a3f565b506003860660018114612ad25760028114612ae257612aed565b613d3d60f01b6002830352612aed565b603d60f81b60018303525b508484525050819450505050505b919050565b612b9a838383604051602401612b1893929190613e4e565b6040516020818303038152906040527ff362ca59000000000000000000000000000000000000000000000000000000007bffffffffffffffffffffffffffffffffffffffffffffffffffffffff19166020820180517bffffffffffffffffffffffffffffffffffffffffffffffffffffffff8381831617835250505050612dae565b505050565b612c3b84848484604051602401612bb99493929190613eed565b6040516020818303038152906040527fd5cf17d0000000000000000000000000000000000000000000000000000000007bffffffffffffffffffffffffffffffffffffffffffffffffffffffff19166020820180517bffffffffffffffffffffffffffffffffffffffffffffffffffffffff8381831617835250505050612dae565b50505050565b612cdd84848484604051602401612c5b9493929190613df4565b6040516020818303038152906040527f9fd009f5000000000000000000000000000000000000000000000000000000007bffffffffffffffffffffffffffffffffffffffffffffffffffffffff19166020820180517bffffffffffffffffffffffffffffffffffffffffffffffffffffffff8381831617835250505050612dae565b50505050565b600081600001549050919050565b612d0b828260405180602001604052806000815250612f73565b5050565b612da9838383604051602401612d2793929190613fa1565b6040516020818303038152906040527f969cdd03000000000000000000000000000000000000000000000000000000007bffffffffffffffffffffffffffffffffffffffffffffffffffffffff19166020820180517bffffffffffffffffffffffffffffffffffffffffffffffffffffffff8381831617835250505050612dae565b505050565b60008151905060006a636f6e736f6c652e6c6f679050602083016000808483855afa5050505050565b505050565b6000612dfd8473ffffffffffffffffffffffffffffffffffffffff16612fce565b15612f66578373ffffffffffffffffffffffffffffffffffffffff1663150b7a02612e2661233e565b8786866040518563ffffffff1660e01b8152600401612e489493929190613d12565b602060405180830381600087803b158015612e6257600080fd5b505af1925050508015612e9357506040513d601f19601f82011682018060405250810190612e909190613558565b60015b612f16573d8060008114612ec3576040519150601f19603f3d011682016040523d82523d6000602084013e612ec8565b606091505b50600081511415612f0e576040517f08c379a0000000000000000000000000000000000000000000000000000000008152600401612f0590613fdf565b60405180910390fd5b805181602001fd5b63150b7a0260e01b7bffffffffffffffffffffffffffffffffffffffffffffffffffffffff1916817bffffffffffffffffffffffffffffffffffffffffffffffffffffffff191614915050612f6b565b600190505b949350505050565b612f7d8383612fe1565b612f8a6000848484612ddc565b612fc9576040517f08c379a0000000000000000000000000000000000000000000000000000000008152600401612fc090613fdf565b60405180910390fd5b505050565b600080823b905060008111915050919050565b600073ffffffffffffffffffffffffffffffffffffffff168273ffffffffffffffffffffffffffffffffffffffff161415613051576040517f08c379a00000000000000000000000000000000000000000000000000000000081526004016130489061411f565b60405180910390fd5b61305a816122d2565b1561309a576040517f08c379a00000000000000000000000000000000000000000000000000000000081526004016130919061401f565b60405180910390fd5b6130a660008383612dd7565b6001600360008473ffffffffffffffffffffffffffffffffffffffff1673ffffffffffffffffffffffffffffffffffffffff16815260200190815260200160002060008282546130f691906143b9565b92505081905550816002600083815260200190815260200160002060006101000a81548173ffffffffffffffffffffffffffffffffffffffff021916908373ffffffffffffffffffffffffffffffffffffffff160217905550808273ffffffffffffffffffffffffffffffffffffffff16600073ffffffffffffffffffffffffffffffffffffffff167fddf252ad1be2c89b69c2b068fc378daa952ba7f163c4a11628f55a4df523b3ef60405160405180910390a45050565b6040518060a0016040528060608152602001606081526020016000815260200160008152602001600081525090565b6040518060c001604052806000815260200160608152602001606081526020016000815260200160008152602001600081525090565b82805461322090614584565b90600052602060002090601f0160209004810192826132425760008555613289565b82601f1061325b57805160ff1916838001178555613289565b82800160010185558215613289579182015b8281111561328857825182559160200191906001019061326d565b5b509050613296919061329a565b5090565b5b808211156132b357600081600090555060010161329b565b5090565b60006132ca6132c5846142fb565b6142d6565b9050828152602081018484840111156132e257600080fd5b6132ed848285614542565b509392505050565b60008135905061330481614d66565b92915050565b60008135905061331981614d7d565b92915050565b60008135905061332e81614d94565b92915050565b60008151905061334381614d94565b92915050565b600082601f83011261335a57600080fd5b813561336a8482602086016132b7565b91505092915050565b60008135905061338281614dab565b92915050565b60006020828403121561339a57600080fd5b60006133a8848285016132f5565b91505092915050565b600080604083850312156133c457600080fd5b60006133d2858286016132f5565b92505060206133e3858286016132f5565b9150509250929050565b60008060006060848603121561340257600080fd5b6000613410868287016132f5565b9350506020613421868287016132f5565b925050604061343286828701613373565b9150509250925092565b6000806000806080858703121561345257600080fd5b6000613460878288016132f5565b9450506020613471878288016132f5565b935050604061348287828801613373565b925050606085013567ffffffffffffffff81111561349f57600080fd5b6134ab87828801613349565b91505092959194509250565b600080604083850312156134ca57600080fd5b60006134d8858286016132f5565b92505060206134e98582860161330a565b9150509250929050565b6000806040838503121561350657600080fd5b6000613514858286016132f5565b925050602061352585828601613373565b9150509250929050565b60006020828403121561354157600080fd5b600061354f8482850161331f565b91505092915050565b60006020828403121561356a57600080fd5b600061357884828501613334565b91505092915050565b60006020828403121561359357600080fd5b60006135a184828501613373565b91505092915050565b60006135b68383613af2565b905092915050565b6135c7816144ce565b82525050565b60006135d88261433c565b6135e2818561436a565b9350836020820285016135f48561432c565b8060005b85811015613630578484038952815161361185826135aa565b945061361c8361435d565b925060208a019950506001810190506135f8565b50829750879550505050505092915050565b61364b816144e0565b82525050565b600061365c82614347565b613666818561437b565b9350613676818560208601614551565b61367f8161471d565b840191505092915050565b600061369582614352565b61369f818561438c565b93506136af818560208601614551565b6136b88161471d565b840191505092915050565b60006136ce82614352565b6136d8818561439d565b93506136e8818560208601614551565b6136f18161471d565b840191505092915050565b600061370782614352565b61371181856143ae565b9350613721818560208601614551565b80840191505092915050565b600061373a600b836143ae565b91506137458261472e565b600b82019050919050565b600061375d60328361439d565b915061376882614757565b604082019050919050565b600061378060288361439d565b915061378b826147a6565b604082019050919050565b60006137a3601c8361439d565b91506137ae826147f5565b602082019050919050565b60006137c6600e836143ae565b91506137d18261481e565b600e82019050919050565b60006137e960248361439d565b91506137f482614847565b604082019050919050565b600061380c60198361439d565b915061381782614896565b602082019050919050565b600061382f602c8361439d565b915061383a826148bf565b604082019050919050565b600061385260388361439d565b915061385d8261490e565b604082019050919050565b6000613875602a8361439d565b91506138808261495d565b604082019050919050565b600061389860298361439d565b91506138a3826149ac565b604082019050919050565b60006138bb602d8361439d565b91506138c6826149fb565b604082019050919050565b60006138de6004836143ae565b91506138e982614a4a565b600482019050919050565b600061390160208361439d565b915061390c82614a73565b602082019050919050565b6000613924602c8361439d565b915061392f82614a9c565b604082019050919050565b600061394760298361439d565b915061395282614aeb565b604082019050919050565b600061396a600a836143ae565b915061397582614b3a565b600a82019050919050565b600061398d60218361439d565b915061399882614b63565b604082019050919050565b60006139b0601d836143ae565b91506139bb82614bb2565b601d82019050919050565b60006139d360318361439d565b91506139de82614bdb565b604082019050919050565b60006139f66056836143ae565b9150613a0182614c2a565b605682019050919050565b6000613a19603d836143ae565b9150613a2482614c9f565b603d82019050919050565b6000613a3c602d836143ae565b9150613a4782614cee565b602d82019050919050565b6000613a5f601c8361439d565b9150613a6a82614d3d565b602082019050919050565b600060a0830160008301518482036000860152613a92828261368a565b91505060208301518482036020860152613aac828261368a565b9150506040830151613ac16040860182613c12565b506060830151613ad46060860182613c12565b506080830151613ae76080860182613c12565b508091505092915050565b600060c083016000830151613b0a6000860182613c12565b5060208301518482036020860152613b22828261368a565b91505060408301518482036040860152613b3c828261368a565b9150506060830151613b516060860182613c12565b506080830151613b646080860182613c12565b5060a0830151613b7760a0860182613c12565b508091505092915050565b600060c083016000830151613b9a6000860182613c12565b5060208301518482036020860152613bb2828261368a565b91505060408301518482036040860152613bcc828261368a565b9150506060830151613be16060860182613c12565b506080830151613bf46080860182613c12565b5060a0830151613c0760a0860182613c12565b508091505092915050565b613c1b81614538565b82525050565b613c2a81614538565b82525050565b6000613c3b8261395d565b9150613c4782896136fc565b9150613c528261372d565b9150613c5e82886136fc565b9150613c69826139e9565b9150613c7582876136fc565b9150613c8082613a0c565b9150613c8c82866136fc565b9150613c97826137b9565b9150613ca382856136fc565b9150613cae82613a2f565b9150613cba82846136fc565b9150613cc5826138d1565b9150819050979650505050505050565b6000613ce0826139a3565b9150613cec82846136fc565b915081905092915050565b6000602082019050613d0c60008301846135be565b92915050565b6000608082019050613d2760008301876135be565b613d3460208301866135be565b613d416040830185613c21565b8181036060830152613d538184613651565b905095945050505050565b6000606082019050613d7360008301866135be565b613d806020830185613c21565b613d8d6040830184613c21565b949350505050565b60006020820190508181036000830152613daf81846135cd565b905092915050565b6000602082019050613dcc6000830184613642565b92915050565b60006020820190508181036000830152613dec81846136c3565b905092915050565b60006080820190508181036000830152613e0e81876136c3565b90508181036020830152613e2281866136c3565b90508181036040830152613e3681856136c3565b9050613e456060830184613c21565b95945050505050565b60006060820190508181036000830152613e6881866136c3565b90508181036020830152613e7c81856136c3565b9050613e8b6040830184613c21565b949350505050565b60006080820190508181036000830152613ead81876136c3565b90508181036020830152613ec181866136c3565b9050613ed06040830185613c21565b8181036060830152613ee281846136c3565b905095945050505050565b60006080820190508181036000830152613f0781876136c3565b90508181036020830152613f1b81866136c3565b9050613f2a6040830185613c21565b613f376060830184613c21565b95945050505050565b600060a0820190508181036000830152613f5a81886136c3565b90508181036020830152613f6e81876136c3565b9050613f7d6040830186613c21565b613f8a6060830185613c21565b613f976080830184613c21565b9695505050505050565b60006060820190508181036000830152613fbb81866136c3565b9050613fca6020830185613c21565b613fd76040830184613c21565b949350505050565b60006020820190508181036000830152613ff881613750565b9050919050565b6000602082019050818103600083015261401881613773565b9050919050565b6000602082019050818103600083015261403881613796565b9050919050565b60006020820190508181036000830152614058816137dc565b9050919050565b60006020820190508181036000830152614078816137ff565b9050919050565b6000602082019050818103600083015261409881613822565b9050919050565b600060208201905081810360008301526140b881613845565b9050919050565b600060208201905081810360008301526140d881613868565b9050919050565b600060208201905081810360008301526140f88161388b565b9050919050565b60006020820190508181036000830152614118816138ae565b9050919050565b60006020820190508181036000830152614138816138f4565b9050919050565b6000602082019050818103600083015261415881613917565b9050919050565b600060208201905081810360008301526141788161393a565b9050919050565b6000602082019050818103600083015261419881613980565b9050919050565b600060208201905081810360008301526141b8816139c6565b9050919050565b600060208201905081810360008301526141d881613a52565b9050919050565b600060208201905081810360008301526141f98184613a75565b905092915050565b6000602082019050818103600083015261421b8184613b82565b905092915050565b60006020820190506142386000830184613c21565b92915050565b600060c0820190506142536000830189613c21565b818103602083015261426581886136c3565b9050818103604083015261427981876136c3565b90506142886060830186613c21565b6142956080830185613c21565b6142a260a0830184613c21565b979650505050505050565b60006040820190506142c26000830185613c21565b6142cf6020830184613c21565b9392505050565b60006142e06142f1565b90506142ec82826145b6565b919050565b6000604051905090565b600067ffffffffffffffff821115614316576143156146ee565b5b61431f8261471d565b9050602081019050919050565b6000819050602082019050919050565b600081519050919050565b600081519050919050565b600081519050919050565b6000602082019050919050565b600082825260208201905092915050565b600082825260208201905092915050565b600082825260208201905092915050565b600082825260208201905092915050565b600081905092915050565b60006143c482614538565b91506143cf83614538565b9250827fffffffffffffffffffffffffffffffffffffffffffffffffffffffffffffffff0382111561440457614403614661565b5b828201905092915050565b600061441a82614538565b915061442583614538565b92508261443557614434614690565b5b828204905092915050565b600061444b82614538565b915061445683614538565b9250817fffffffffffffffffffffffffffffffffffffffffffffffffffffffffffffffff048311821515161561448f5761448e614661565b5b828202905092915050565b60006144a582614538565b91506144b083614538565b9250828210156144c3576144c2614661565b5b828203905092915050565b60006144d982614518565b9050919050565b60008115159050919050565b60007fffffffff0000000000000000000000000000000000000000000000000000000082169050919050565b600073ffffffffffffffffffffffffffffffffffffffff82169050919050565b6000819050919050565b82818337600083830152505050565b60005b8381101561456f578082015181840152602081019050614554565b8381111561457e576000848401525b50505050565b6000600282049050600182168061459c57607f821691505b602082108114156145b0576145af6146bf565b5b50919050565b6145bf8261471d565b810181811067ffffffffffffffff821117156145de576145dd6146ee565b5b80604052505050565b60006145f282614538565b91507fffffffffffffffffffffffffffffffffffffffffffffffffffffffffffffffff82141561462557614624614661565b5b600182019050919050565b600061463b82614538565b915061464683614538565b92508261465657614655614690565b5b828206905092915050565b7f4e487b7100000000000000000000000000000000000000000000000000000000600052601160045260246000fd5b7f4e487b7100000000000000000000000000000000000000000000000000000000600052601260045260246000fd5b7f4e487b7100000000000000000000000000000000000000000000000000000000600052602260045260246000fd5b7f4e487b7100000000000000000000000000000000000000000000000000000000600052604160045260246000fd5b6000601f19601f8301169050919050565b7f202d2d204e465420233a20000000000000000000000000000000000000000000600082015250565b7f4552433732313a207472616e7366657220746f206e6f6e20455243373231526560008201527f63656976657220696d706c656d656e7465720000000000000000000000000000602082015250565b7f4572726f723a20626f7373206d757374206861766520485020746f206174746160008201527f636b20626f73732e000000000000000000000000000000000000000000000000602082015250565b7f4552433732313a20746f6b656e20616c7265616479206d696e74656400000000600082015250565b7f2c20226d61785f76616c7565223a000000000000000000000000000000000000600082015250565b7f4552433732313a207472616e7366657220746f20746865207a65726f2061646460008201527f7265737300000000000000000000000000000000000000000000000000000000602082015250565b7f4552433732313a20617070726f766520746f2063616c6c657200000000000000600082015250565b7f4552433732313a206f70657261746f7220717565727920666f72206e6f6e657860008201527f697374656e7420746f6b656e0000000000000000000000000000000000000000602082015250565b7f4552433732313a20617070726f76652063616c6c6572206973206e6f74206f7760008201527f6e6572206e6f7220617070726f76656420666f7220616c6c0000000000000000602082015250565b7f4552433732313a2062616c616e636520717565727920666f7220746865207a6560008201527f726f206164647265737300000000000000000000000000000000000000000000602082015250565b7f4552433732313a206f776e657220717565727920666f72206e6f6e657869737460008201527f656e7420746f6b656e0000000000000000000000000000000000000000000000602082015250565b7f4572726f723a20636861726163746572206d757374206861766520485020746f60008201527f2061747461636b20626f73732e00000000000000000000000000000000000000602082015250565b7f7d205d7d00000000000000000000000000000000000000000000000000000000600082015250565b7f4552433732313a206d696e7420746f20746865207a65726f2061646472657373600082015250565b7f4552433732313a20617070726f76656420717565727920666f72206e6f6e657860008201527f697374656e7420746f6b656e0000000000000000000000000000000000000000602082015250565b7f4552433732313a207472616e73666572206f6620746f6b656e2074686174206960008201527f73206e6f74206f776e0000000000000000000000000000000000000000000000602082015250565b7f7b226e616d65223a202200000000000000000000000000000000000000000000600082015250565b7f4552433732313a20617070726f76616c20746f2063757272656e74206f776e6560008201527f7200000000000000000000000000000000000000000000000000000000000000602082015250565b7f646174613a6170706c69636174696f6e2f6a736f6e3b6261736536342c000000600082015250565b7f4552433732313a207472616e736665722063616c6c6572206973206e6f74206f60008201527f776e6572206e6f7220617070726f766564000000000000000000000000000000602082015250565b7f222c20226465736372697074696f6e223a202241206361742066726f6d20746860008201527f6520436174766572736520747279696e6720746f20646566656174207468652060208201527f426f73732043617421222c2022696d616765223a202200000000000000000000604082015250565b7f222c202261747472696275746573223a205b207b202274726169745f7479706560008201527f223a20224865616c746820506f696e7473222c202276616c7565223a20000000602082015250565b7f7d2c207b202274726169745f74797065223a202241747461636b2044616d616760008201527f65222c202276616c7565223a2000000000000000000000000000000000000000602082015250565b7f4572726f723a206368617261637465722048502069732066756c6c2e00000000600082015250565b614d6f816144ce565b8114614d7a57600080fd5b50565b614d86816144e0565b8114614d9157600080fd5b50565b614d9d816144ec565b8114614da857600080fd5b50565b614db481614538565b8114614dbf57600080fd5b5056fe4142434445464748494a4b4c4d4e4f505152535455565758595a6162636465666768696a6b6c6d6e6f707172737475767778797a303132333435363738392b2f4d696e746564204e465420772f20746f6b656e496420257320616e6420636861726163746572496e6465782025730a506c6179657220772f206368617261637465722025732061626f757420746f2061747461636b2e2048617320257320485020616e6420257320414425732061747461636b65642025732e204e657720706c617965722068703a202573a26469706673582212206986ec0334c60b660789d19a3fc707f0e717ebd9788a5fc9bcb69f7ede7f57c564736f6c63430008040033446f6e6520696e697469616c697a696e6720257320772f2048502025732c20696d67202573446f6e6520696e697469616c697a696e6720626f737320257320772f2048502025732c20696d67202573",
  "linkReferences": {},
  "deployedLinkReferences": {}
}